:03000000020A02EF
:0C0A0200787FE4F6D8FD758137020A49C0
:100C9D00120CE2120BA3120C017F0A7E00120C7FC4
:020CAD0080F1D4
:100CC00001030206040C080901030206040C0809CA
:100C7F00D3EF9400EE940040147D6E7C00ED1D7058
:0D0C8F00011CED4C70F7EF1F70E61E80E3B6
:010C9C002235
:040A8E008E088F0936
:100A9200780A7C007D007BFF7A0C79C07E007F089B
:100AA2001208D0E4F512AE08AF097C037DE8120902
:100AB200D5E47B02FAF9F81209328F168E158D14DD
:100AC2008C13E4F51AF519F518F517AF16AE15AD36
:100AD20014AC13AB1AAA19A918A817C31209C45047
:100AE20032740A2512F8E6F5900512E512C394084D
:100AF2004003E4F5127F027E00120C7FE51A240106
:100B0200F51AE43519F519E43518F518E43517F531
:060B12001780B8E4F59025
:010B180022BA
:040B19008E1B8F1C84
:100B1D00781D7C007D007BFF7A0C79C87E007F08F4
:100B2D001208D0752507AE1BAF1C7C037DE812099A
:100B3D00D5E47B02FAF9F81209328F298E288D2718
:100B4D008C26E4F52DF52CF52BF52AAF29AE28AD25
:100B5D0027AC26AB2DAA2CA92BA82AC31209C45049
:100B6D0031741D2525F8E6F590E5257005752507E9
:100B7D00800215257F027E00120C7FE52D2401F5E4
:100B8D002DE4352CF52CE4352BF52BE4352AF52AFF
:050B9D0080B9E4F590B1
:010BA2002230
:100CAF00082E01030206040C08090136000137075C
:040C5D007F027E0094
:100C6100D3EF9400EE940040147D6E7C00ED1D7076
:0D0C7100011CED4C70F7EF1F70E61E80E3D4
:010C7E002253
:090CD000E5B020E002D322C322AA
:090CD900E5B020E102D322C322A0
:040CE200E4F5902283
:100BA300120CD050587F327E00120C61120CD050C0
:100BB3004C120CD05019742E2536F8E6F5900536F4
:100BC300E536C394084003E4F536120C5D80E2E495
:100BD300FBFA742E2536F8E6F5900536E536C39410
:100BE300084003E4F536120C5D0BBB00010AEB640D
:0D0BF300324A70DEE4F5907F32FE120C6194
:010C000022D1
:100C0100120CD950567F327E00120C61120CD95051
:100C11004A120CD95018742E2537F8E6F590E537AD
:100C2100700575370780021537120C5D80E3E4FB10
:100C3100FA742E2537F8E6F590E537700575370714
:100C410080021537120C5D0BBB00010AEB64324ABE
:0B0C510070DFE4F5907F32FE120C61B2
:010C5C002275
:100A0E00020C9DE493A3F8E493A34003F68001F255
:100A1E0008DFF48029E493A3F85407240CC8C333E9
:100A2E00C4540F4420C8834004F456800146F6DFB8
:100A3E00E4800B0102040810204080900CAFE47E8D
:100A4E00019360BCA3FF543F30E509541FFEE493AD
:100A5E00A360010ECF54C025E060A840B8E493A374
:100A6E00FAE493A3F8E493A3C8C582C8CAC583CA9F
:100A7E00F0A3C8C582C8CAC583CADFE9DEE780BE57
:010CBF000034
:10080000E709F608DFFA8046E709F208DFFA803EDA
:1008100088828C83E709F0A3DFFA8032E309F608C7
:10082000DFFA8078E309F208DFFA807088828C832F
:10083000E309F0A3DFFA806489828A83E0A3F608E3
:10084000DFFA805889828A83E0A3F208DFFA804CBD
:1008500080D280FA80C680D4806980F28033801094
:1008600080A680EA809A80A880DA80E280CA8033FD
:1008700089828A83ECFAE493A3C8C582C8CCC58375
:10088000CCF0A3C8C582C8CCC583CCDFE9DEE78045
:100890000D89828A83E493A3F608DFF9ECFAA9F0C4
:1008A000EDFB2289828A83ECFAE0A3C8C582C8CC1A
:1008B000C583CCF0A3C8C582C8CCC583CCDFEADE33
:1008C000E880DB89828A83E493A3F208DFF980CC95
:1008D00088F0EF60010E4E60C388F0ED2402B4048E
:1008E0000050B9F582EB2402B4040050AF23234535
:0608F00082239008507302
:1008F60075F008758200EF2FFFEE33FECD33CDCCB9
:1009060033CCC58233C5829BED9AEC99E58298403B
:100916000CF582EE9BFEED9AFDEC99FC0FD5F0D618
:10092600E4CEFBE4CDFAE4CCF9A88222B800C1B942
:100936000059BA002DEC8BF084CFCECDFCE5F0CB80
:10094600F97818EF2FFFEE33FEED33FDEC33FCEBB9
:1009560033FB10D703994004EB99FB0FD8E5E4F974
:10096600FA227818EF2FFFEE33FEED33FDEC33FC61
:10097600C933C910D7059BE99A4007EC9BFCE99A55
:10098600F90FD8E0E4C9FAE4CCFB2275F010EF2F9A
:10099600FFEE33FEED33FDCC33CCC833C810D7079A
:1009A6009BEC9AE899400AED9BFDEC9AFCE899F8D5
:0E09B6000FD5F0DAE4CDFBE4CCFAE4C8F92268
:1009C400EB9FF5F0EA9E42F0E99D42F0E89C45F089
:0109D4002200
:1009D500EC8EF0A4CCC5F0CCCDF8EFA4CEC5F02DAF
:1009E500FDE43CFCE8A42EC8C5F03DFDE43CFCEF6D
:0D09F500A4FFE5F028FEE43DFDE43CFC22FB
:00000001FF
