:03000000020CFDF2
:0C0CFD00787FE4F6D8FD758127020D44D5
:060FAA000421000000001C
:100BB400750C20750D00AF0DAE0C12101F8F08E5DB
:100BC4000D2401FFE4350CFE12101F8F09E50D24DE
:100BD40002FFE4350CFE12101F8F0AE50D2403FFFB
:100BE400E4350CFE12101F8F0BAF09E4FCFDFE78F8
:100BF4000812095EA804A905AA06AB07EB4508FF7D
:100C0400EAFEE9FDE8FCC004C005C006C007AF0A5F
:100C1400E4FCFDFE781012095ED003D002D001D0AE
:100C240000EF4BFFEE4AFEED49FDEC48FCC004C06A
:100C340005C006C007AF0BE4FCFDFE781812095E80
:100C4400D003D002D001D000EF4BF524EE4AF523B7
:080C5400ED49F522EC48F52101
:010C5C002275
:100F8000121110120BB4121106121088120A3C1220
:100F90000C5D120FEB1210051210F6EF7003120D1C
:0A0FA000897F0A7E00120FCD80E267
:0D0FB000081701030206040C0809011600D1
:100FCD00D3EF9400EE940040147D6E7C00ED1D7007
:0D0FDD00011CED4C70F7EF1F70E61E80E365
:010FEA0022E4
:100E0A00E4FCFD7B02FAF9F81208918F118E108D1D
:100E1A000F8C0EE4F515F514F513F512AF11AE109B
:100E2A00AD0FAC0EAB15AA14A913A812C312093937
:100E3A00503274172516F8E6F5900516E516C39490
:100E4A00084003E4F5167F027E00120FCDE5152453
:100E5A0001F515E43514F514E43513F513E43512E8
:040E6A00F51280B845
:010E6E002261
:100E6F00E4FCFD7B02FAF9F81208918F118E108DB8
:100E7F000F8C0EE4F515F514F513F512AF11AE1036
:100E8F00AD0FAC0EAB15AA14A913A812C3120939D2
:100E9F00503174172516F8E6F590E516700575169E
:100EAF0007800215167F027E00120FCDE515240173
:100EBF00F515E43514F514E43513F513E43512F58F
:030ECF001280B9D5
:010ED20022FD
:04110C00E4F5902254
:0910C900E5B020E002D322C322AD
:0910D200E5B020E102D322C322A3
:0910DB00E5B020E202D322C32299
:0910E400E5B020E302D322C3228F
:0411100075B0FF2295
:100A3C001210C94003020B047F327E00120FCD123C
:100A4C0010C94003020B04E47F107E27FDFCAB248D
:100A5C00AA23A922A821C3120923401412110C7F26
:100A6C00327E00120FCD1210C94003020B0480F627
:100A7C001210C95076E47F107E27FDFCAB24AA230C
:100A8C00A922A821C31209235061C374109524FF15
:100A9C0074279523FEE49522FDE49521FCE47BBCB0
:100AAC007A02F9F8D31209235009E47FBC7E02FDC7
:100ABC00FC8013C374109524FF74279523FEE495D2
:100ACC0022FDE49521FC8F0B8E0A8D098C08120EE9
:100ADC000AE524250BF524E523350AF523E5223513
:100AEC0009F522E5213508F521808512110C120F2C
:080AFC002D7F327E00120FCDA8
:010B040022CE
:100C5D001210D24003020CFC7F327E00120FCD1217
:100C6D0010D24003020CFCAF24AE23AD22AC21EC1C
:100C7D004D4E4F701112110C7F327E00120FCD129E
:100C8D0010D2506B80F91210D25057E4FFFEFDFCCC
:100C9D00AB24AA23A922A8211209234045E47FBC35
:100CAD007E02FDFCA8211209234009E47FBC7E02CF
:100CBD00FDFC8008AF24AE23AD22AC218F0B8E0A34
:100CCD008D098C08120E6FC3E524950BF524E523D1
:100CDD00950AF523E5229509F522E5219508F521DB
:0F0CED0080A412110C120F2D7F327E00120FCD3A
:010CFC0022D5
:100FEB001210DB50147F327E00120FCD1210DB502B
:0A0FFB0008120B051210DB40FB2268
:101005001210E450147F327E00120FCD1210E450FE
:0A101500081209711210E440FB22DA
:0E109700C2AFE5E754184402F5E743E78022B4
:0910ED0053E77FE4F5E6D2AF22DF
:0510A500F5E5121097B3
:0810AA0075E64675E6B9002267
:04101F00AD07AC0667
:101023008CE38DE4E5E554F844011210A5AFE20228
:0210330010EDBE
:10104B00EE54FEFEF5E3E4F5E4E5E554F844031253
:05105B0010A50210EDDC
:10103500AB07AA068AE38BE48DE2E5E554F84402A2
:061045001210A50210EDDF
:01111A0022B2
:100F2D00E524FFE4AB07AE23AD22AC21780812090E
:100F3D004AE48F0EAF24AE23AD22AC2178101209F6
:100F4D004AE4A907AF24AE23AD22AC2178181209CB
:100F5D004AE4AC07FF7E2012104BAD037E20121029
:100F6D0035AD0E0F121035AD010F121035AD040F4A
:030F7D000210352A
:020FBD00C10071
:0C10B20030000812110C120F2DC2002299
:100B05003000030210B2E4FFFEFDFCAB24AA23A9CA
:100B150022A821D31209235003020BB385240B8588
:100B2500230A852209852108D200E4FFFEFDFCABDE
:100B35000BAA0AA909A808D31209394060E47F6401
:100B4500FEFDFCA80812093940067E007F6480047A
:100B5500AE0AAF0B8E0C8F0D120E6FAE0CAF0DAB38
:100B650007AA06C3E5249BF524E5239AF523E52288
:100B75009400F522E5219400F521C3E50B9BF50BC7
:100B8500E50A9AF50AE5099400F509E5089400F5E2
:100B950008E5B030E010E5B020E18F8009E4F524E8
:0E0BA500F523F522F52112110C120F2DC200BE
:010BB300221F
:100971003000030210B2E47F107E27FDFCAB24AAF5
:1009810023A922A821C31209234003020A3BC374ED
:10099100109524FF74279523FEE49522FDE495210B
:1009A1008F0B8E0A8D09F508D200E4FFFEFDFCAB2A
:1009B1000BAA0AA909A808D3120939406AE47F647D
:1009C100FEFDFCA80812093940067E007F64800400
:1009D100AE0AAF0B8E0C8F0D120E0AE4FCFDE5245E
:1009E100250DF524E523350CF523ED3522F522EC13
:1009F1003521F521AE0CAF0DAB07AA06C3E50B9B64
:100A0100F50BE50A9AF50AE5099400F509E508945C
:100A110000F5081211175003121074E5B030E012FE
:100A2100E5B020E185800BE4752410752327F522BC
:0A0A3100F52112110C120F2DC20066
:010A3B002298
:01111B0022B1
:0910F6003000037F01227F00227B
:0B0FBF00C101012500012600012700F0
:10106000E4FDFCC3ED9FEC9E500900000DBD0001A6
:031070000C80F001
:01107300225A
:06110600C2A043A002227A
:100ED300C2A07F027E00121060D2A07F0A121060AF
:100EE300C2A07F307E7520A10BEF1F70011E144E30
:100EF30070F4801F5389F0438901E4F58CF58AD29D
:100F03008C7E757F3030A110EF1F70011E144E7060
:100F1300F4C28C7EFF7FFF22C28CAF8CEFFEAD8AC2
:090F2300EDFF7C007D3A1208008C
:010F2C0022A2
:100D8900E47F107E27FDFCAB24AA23A922A821C356
:100D99001209234005C2A0C201220525E525C394F5
:100DA9000A405DE4F5251210F6EF6008E4F526F532
:100DB90027C20122120ED3EFF47002EEF46017D3AA
:100DC900EF9414EE9400500EE526C39403500205E7
:100DD90026E4F527800CE527C3940350020527E490
:100DE900F526E526C39403400E20010B12111412B7
:100DF90009711210BED201E527C394034002C20152
:010E090022C6
:020FCA00C10262
:03000B000210FFE1
:0710FF00C2A5C28CC2A93298
:0F108800C2A55389F0438901C28CC2A9C28D222F
:03111400D20222E2
:0B10BE00C202C2A5C28CC2A9C28D22D2
:10107400300210D2A57C3C8C8C74B0F58AC28DD21F
:03108400A9D28C62
:011087002246
:03111700A202220F
:100D0900020F80E493A3F8E493A34003F68001F271
:100D190008DFF48029E493A3F85407240CC8C333EB
:100D2900C4540F4420C8834004F456800146F6DFBA
:100D3900E4800B0102040810204080900FAAE47E91
:100D4900019360BCA3FF543F30E509541FFEE493AF
:100D5900A360010ECF54C025E060A840B8E493A376
:100D6900FAE493A3F8E493A3C8C582C8CAC583CAA1
:100D7900F0A3C8C582C8CAC583CADFE9DEE780BE59
:010FCC000024
:10080000BC000BBE0029EF8DF084FFADF022E4CCDC
:10081000F875F008EF2FFFEE33FEEC33FCEE9DECA5
:10082000984005FCEE9DFE0FD5F0E9E4CEFD22EDEB
:10083000F8F5F0EE8420D21CFEADF075F008EF2F35
:10084000FFED33FD4007985006D5F0F222C398FD26
:050850000FD5F0EA22C3
:1008550075F008758200EF2FFFEE33FECD33CDCC5A
:1008650033CCC58233C5829BED9AEC99E5829840DD
:100875000CF582EE9BFEED9AFDEC99FC0FD5F0D6BA
:10088500E4CEFBE4CDFAE4CCF9A88222B800C1B9E4
:100895000059BA002DEC8BF084CFCECDFCE5F0CB22
:1008A500F97818EF2FFFEE33FEED33FDEC33FCEB5B
:1008B50033FB10D703994004EB99FB0FD8E5E4F916
:1008C500FA227818EF2FFFEE33FEED33FDEC33FC03
:1008D500C933C910D7059BE99A4007EC9BFCE99AF7
:1008E500F90FD8E0E4C9FAE4CCFB2275F010EF2F3C
:1008F500FFEE33FEED33FDCC33CCC833C810D7073C
:100905009BEC9AE899400AED9BFDEC9AFCE899F876
:0E0915000FD5F0DAE4CDFBE4CCFAE4C8F92209
:10092300EB9FF5F0EA9E42F0E99D42F0EC6480C84B
:0609330064809845F022EB
:10093900EB9FF5F0EA9E42F0E99D42F0E89C45F014
:01094900228B
:10094A00E86010ECA2E713FCED13FDEE13FEEF13C3
:04095A00FFD8F022B0
:10095E00E8600FEFC333FFEE33FEED33FDEC33FCF7
:03096E00D8F1229B
:00000001FF
