:03000000020B836D
:0C0B8300787FE4F6D8FD758124020BCACF
:060EB50004210000000012
:100A3A00750C20750D00AF0DAE0C120ECD8F08E5AA
:100A4A000D2401FFE4350CFE120ECD8F09E50D24AD
:100A5A0002FFE4350CFE120ECD8F0AE50D2403FFCA
:100A6A00E4350CFE120ECD8F0BAF09E4FCFDFE78C7
:100A7A000812095EA804A905AA06AB07EB4508FFF8
:100A8A00EAFEE9FDE8FCC004C005C006C007AF0ADB
:100A9A00E4FCFDFE781012095ED003D002D001D02A
:100AAA0000EF4BFFEE4AFEED49FDEC48FCC004C0E6
:100ABA0005C006C007AF0BE4FCFDFE781812095EFC
:100ACA00D003D002D001D000EF4BF524EE4AF52333
:080ADA00ED49F522EC48F5217D
:010AE20022F1
:100E3C00120F89120A3A120F7F120971120AE31269
:100E4C000E81120E9B120F76EF7003120E137F0A97
:070E5C007E00120E6380E22C
:0D0EBB00081501030206040C0809011400CB
:100E6300D3EF9400EE940040147D6E7C00ED1D7072
:0D0E7300011CED4C70F7EF1F70E61E80E3D0
:010E8000224F
:100C0F00E4FCFD7B02FAF9F81208918F0F8E0E8D1E
:100C1F000D8C0CE4F513F512F511F510AF0FAE0EA8
:100C2F00AD0DAC0CAB13AA12A911A810C312093940
:100C3F00503274152514F8E6F5900514E514C39495
:100C4F00084003E4F5147F027E00120E63E51324BF
:100C5F0001F513E43512F512E43511F511E43510F1
:040C6F00F51080B844
:010C7300225E
:100C7400E4FCFD7B02FAF9F81208918F0F8E0E8DB9
:100C84000D8C0CE4F513F512F511F510AF0FAE0E43
:100C9400AD0DAC0CAB13AA12A911A810C3120939DB
:100CA400503174152514F8E6F590E51470057514A3
:100CB40007800215147F027E00120E63E5132401DF
:100CC400F513E43512F512E43511F511E43510F598
:030CD4001080B9D4
:010CD70022FA
:040F8500E4F59022DD
:090F4900E5B020E002D322C3222E
:090F5200E5B020E102D322C32224
:090F5B00E5B020E202D322C3221A
:090F6400E5B020E302D322C32210
:040F890075B0FF221E
:10097100120F494003020A397F327E00120E6312C0
:100981000F494003020A39E47F107E27FDFCAB24A6
:10099100AA23A922A821C31209234014120F857F7B
:1009A100327E00120E63120F494003020A3980F6AB
:1009B100120F495076E47F107E27FDFCAB24AA2359
:1009C100A922A821C31209235061C374109524FFE1
:1009D10074279523FEE49522FDE49521FCE47BBC7C
:1009E1007A02F9F8D31209235009E47FBC7E02FD93
:1009F100FC8013C374109524FF74279523FEE4959E
:100A010022FDE49521FC8F0B8E0A8D098C08120CB6
:100A11000FE524250BF524E523350AF523E52235D9
:100A210009F522E5213508F5218085120F85120D82
:080A3100327F327E00120E63D9
:010A3900229A
:100AE300120F524003020B827F327E00120E6312FA
:100AF3000F524003020B82AF24AE23AD22AC21EC94
:100B03004D4E4F7011120F857F327E00120E63120D
:100B13000F52506B80F9120F525057E4FFFEFDFC49
:100B2300AB24AA23A922A8211209234045E47FBCB0
:100B33007E02FDFCA8211209234009E47FBC7E024A
:100B4300FDFC8008AF24AE23AD22AC218F0B8E0AAF
:100B53008D098C08120C74C3E524950BF524E52349
:100B6300950AF523E5229509F522E5219508F52156
:0F0B730080A4120F85120D327F327E00120E63A6
:010B82002250
:100E8100120F5B50147F327E00120E63120F5B5003
:0A0E910008120DD3120F5B40FB2284
:100E9B00120F6450147F327E00120E63120F6450D7
:0A0EAB0008120D85120F6440FB22AF
:0E0F2200C2AFE5E754184402F5E743E780222A
:090F6D0053E77FE4F5E6D2AF2260
:050F3000F5E5120F229F
:080F350075E64675E6B90022DD
:040ECD00AD07AC06BB
:100ED1008CE38DE4E5E554F84401120F30AFE202F2
:020EE1000F6D93
:100EF900EE54FEFEF5E3E4F5E4E5E554F8440312A7
:050F09000F30020F6D26
:100EE300AB07AA068AE38BE48DE2E5E554F84402F6
:060EF300120F30020F6D2A
:010F8D002241
:100D3200E524FFE4AB07AE23AD22AC21780812090B
:100D42004AE48F0CAF24AE23AD22AC2178101209F5
:100D52004AE4A907AF24AE23AD22AC2178181209C8
:100D62004AE4AC07FF7E20120EF9AD037E20120E7C
:100D7200E3AD0C0F120EE3AD010F120EE3AD040F43
:030D8200020EE37B
:020EC800C10067
:0C0F3D00300008120F85120D32C2002295
:100DD300300003020F3DE4FFFEFDFCAB24AA23A970
:100DE30022A821D3120923402685240B85230A85B3
:100DF3002209852108D200AE0AAF0B120C74E4F568
:0F0E030024F523F522F521120F85120D32C200BE
:010E120022BD
:100D8500300003020F3DE47F107E27FDFCAB24AA53
:100D950023A922A821C31209235032C37410952414
:100DA500FF74279523FEE49522FDE495218F0B8E94
:100DB5000A8D09F508D200120C0FE475241075236D
:0D0DC50027F522F521120F85120D32C20014
:010DD20022FE
:010F8E002240
:090F76003000037F01227F0022FC
:020ECA00C10164
:100F0E00E4FDFCC3ED9FEC9E500900000DBD0001F9
:030F1E000C80F054
:010F210022AD
:060F7F00C2A043A0022203
:100CD800C2A07F027E00120F0ED2A07F0A120F0E52
:100CE800C2A07F307E7520A10BEF1F70011E144E2D
:100CF80070F4801F5389F0438901E4F58CF58AD29A
:100D08008C7E757F3030A110EF1F70011E144E705D
:100D1800F4C28C7EFF7FFF22C28CAF8CEFFEAD8ABF
:090D2800EDFF7C007D3A12080089
:010D3100229F
:100E1300120F76EF6003C20122120CD8EFF47002B6
:100E2300EEF46012D3EF9414EE94005009200108FD
:080E3300120D85D20122C2015B
:010E3B002294
:100B8F00020E3CE493A3F8E493A34003F68001F232
:100B9F0008DFF48029E493A3F85407240CC8C33367
:100BAF00C4540F4420C8834004F456800146F6DF36
:100BBF00E4800B0102040810204080900EB5E47E03
:100BCF00019360BCA3FF543F30E509541FFEE4932B
:100BDF00A360010ECF54C025E060A840B8E493A3F2
:100BEF00FAE493A3F8E493A3C8C582C8CAC583CA1D
:100BFF00F0A3C8C582C8CAC583CADFE9DEE780BED5
:010ECC000025
:10080000BC000BBE0029EF8DF084FFADF022E4CCDC
:10081000F875F008EF2FFFEE33FEEC33FCEE9DECA5
:10082000984005FCEE9DFE0FD5F0E9E4CEFD22EDEB
:10083000F8F5F0EE8420D21CFEADF075F008EF2F35
:10084000FFED33FD4007985006D5F0F222C398FD26
:050850000FD5F0EA22C3
:1008550075F008758200EF2FFFEE33FECD33CDCC5A
:1008650033CCC58233C5829BED9AEC99E5829840DD
:100875000CF582EE9BFEED9AFDEC99FC0FD5F0D6BA
:10088500E4CEFBE4CDFAE4CCF9A88222B800C1B9E4
:100895000059BA002DEC8BF084CFCECDFCE5F0CB22
:1008A500F97818EF2FFFEE33FEED33FDEC33FCEB5B
:1008B50033FB10D703994004EB99FB0FD8E5E4F916
:1008C500FA227818EF2FFFEE33FEED33FDEC33FC03
:1008D500C933C910D7059BE99A4007EC9BFCE99AF7
:1008E500F90FD8E0E4C9FAE4CCFB2275F010EF2F3C
:1008F500FFEE33FEED33FDCC33CCC833C810D7073C
:100905009BEC9AE899400AED9BFDEC9AFCE899F876
:0E0915000FD5F0DAE4CDFBE4CCFAE4C8F92209
:10092300EB9FF5F0EA9E42F0E99D42F0EC6480C84B
:0609330064809845F022EB
:10093900EB9FF5F0EA9E42F0E99D42F0E89C45F014
:01094900228B
:10094A00E86010ECA2E713FCED13FDEE13FEEF13C3
:04095A00FFD8F022B0
:10095E00E8600FEFC333FFEE33FEED33FDEC33FCF7
:03096E00D8F1229B
:00000001FF
